:1000000012C04FC08DC02AC029C028C027C026C03A
:1000100025C0A8C123C0A5C321C020C01FC01EC0C9
:100020001DC0CFC01BC011241FBECFE5D4E0DEBF72
:10003000CDBF10E0A0E6B0E0E8EDF7E002C005902B
:100040000D92A839B107D9F710E0A8E9B0E001C0D6
:100050001D92AC3AB107E1F708D0BCC3D1CF9FD015
:1000600052D313D014D1EBD2089599D04CD30DD0E4
:100070000ED1E5D28FEF93E2A4EF81509040A040E3
:10008000E1F700C000007894FFCF8A988B9885B77D
:10009000846085BF85B7816085BF8BB7806C8BBF5F
:1000A00008951F920F920FB60F9211242F933F9332
:1000B0004F935F936F937F938F939F93AF93BF9370
:1000C000EF93FF9383E280939D009CE490939E00C6
:1000D00082E080939B0088B3817080939F0090930F
:1000E000A00084E080939B0088B381708093A1007E
:1000F00085E28093A20086E080939B005CD0FF9114
:10010000EF91BF91AF919F918F917F916F915F918F
:100110004F913F912F910F900FBE0F901F90189508
:100120001F920F920FB60F9211242F933F934F936C
:100130005F936F937F938F939F93AF93BF93EF934F
:10014000FF9383E280939D0090E590939E0082E070
:1001500080939B0082B3807880939F009093A0004F
:1001600084E080939B0082B380788093A10085E235
:100170008093A20086E080939B001DD0FF91EF91B9
:10018000BF91AF919F918F917F916F915F914F91AF
:100190003F912F910F900FBE0F901F9018951092C6
:1001A0009C0010929B0084E082B916BE86B78564DD
:1001B00086BF8C9A0895949902C0949A0895949851
:1001C00008951F920F920FB60F9211242F933F9311
:1001D0004F935F936F937F938F939F93AF93BF934F
:1001E000EF93FF9381B190E0887F90708038910504
:1001F00089F181389105CCF480369105D9F11092BE
:100200009C0086B7806886BFFF91EF91BF91AF9148
:100210009F918F917F916F915F914F913F912F911E
:100220000F900FBE0F901F901895883A910519F006
:10023000883B910521F780919C00E82FF0E0E35680
:10024000FF4F908193B98F5F80939C0086B7806445
:1002500086BFD7CF83B18093980066D280919800F3
:10026000833779F0813679F0873779F0843671F702
:1002700022D2ECCF83B18093980086B7806486BF8A
:10028000C0CF22D2E3CF0ED2E1CF03D2DFCF3D9A4F
:100290001092A6001092A50083B7846083BF12BE9F
:1002A00089B7816089BF10929A00109299001092CC
:1002B000AA001092A9001092A4001092A30010921C
:1002C000A8001092A70008951092A6001092A50011
:1002D00083B7846083BF12BE89B7816089BF0895E8
:1002E000379827B117B83D9A009749F081309105AA
:1002F000C9F082309105E1F083309105A9F0379A79
:10030000369A3699FECF84B182958695869583700C
:1003100025B130E0220F331F220F331F280F311D6C
:10032000C9010895389AEBCF87B1836087B9E7CFC9
:10033000399AE5CF42E350E0849F9001859F300DCC
:10034000949F300D1124232F332726952695245072
:100350003040C90104978731910510F02BE130E05E
:10036000C90108951F920F920FB60F921124FF92A8
:100370000F931F932F933F934F935F936F937F93AD
:100380008F939F93AF93BF93CF93DF93EF93FF939D
:10039000E091A500F091A6003196F093A600E093BD
:1003A000A500379887B117B83D9A379A369A36998B
:1003B000FECF84B1829586958695837025B130E015
:1003C000220F331F220F331F280F311D80919900F8
:1003D00090919A00820F931F90939A0080939900B6
:1003E000379827B117B83D9A389A379A369A36997E
:1003F000FECF44B1429546954695437025B130E015
:10040000220F331F220F331F240F311DC091A9006B
:10041000D091AA00C20FD31FD093AA00C093A90005
:10042000379827B117B83D9A399A379A369A36993C
:10043000FECF44B1429546954695437025B130E0D4
:10044000220F331F220F331F240F311D0091A300F1
:100450001091A400020F131F1093A4000093A30097
:10046000379827B117B83D9A27B1236027B9379A33
:10047000369A3699FECF44B14295469546954370DB
:1004800025B130E0220F331F220F331F240F311DFF
:100490004091A7005091A800240F351F3093A80069
:1004A0002093A700E233F105B1F0FF91EF91DF91C6
:1004B000CF91BF91AF919F918F917F916F915F91FC
:1004C0004F913F912F911F910F91FF900F900FBE71
:1004D0000F901F901895BF0156D16E9FC0016F9F5E
:1004E000900D7E9F900D1124892F992786958695D2
:1004F0000497AC01445050404731510510F08BE156
:1005000090E0FC01EE0FFF1FE05AFF4F4081818118
:100510004093990080939A00E2E3F0E0CE01BF019E
:1005200032D16E9FC0016F9F900D7E9F900D112460
:10053000892F9927869586950497BC016450704051
:100540006731710510F08BE190E0FC01EE0FFF1FA9
:10055000E05AFF4FF0808181F092A9008093AA00B9
:10056000E2E3F0E0C801BF010ED16E9FC0016F9FB2
:10057000900D7E9F900D1124892F99278695869541
:100580000497BC01645070406731710510F08BE135
:1005900090E0FC01EE0FFF1FE05AFF4F00818181C8
:1005A0000093A3008093A400E2E3F0E0C901BF013F
:1005B000EAD06E9FC0016F9F900D7E9F900D112419
:1005C000892F99278695869504979C012450304061
:1005D0002731310510F08BE190E0FC01EE0FFF1F99
:1005E000E05AFF4F808191818093A7009093A800EB
:1005F00093E290939D0040939E00F0929F000093A1
:10060000A0008093A10085E28093A20086E0809301
:100610009B00D1DD10929A00109299001092AA00CE
:100620001092A9001092A4001092A3001092A800AA
:100630001092A7001092A6001092A50036CF8D9AB6
:10064000B89A81B3806C81BB81EA8FBD89E08EBD91
:1006500087B3866087BB1BBC1ABC19BC18BC9598B5
:10066000C09A9698979A08959598C09A9698979A4E
:100670000895E82F962F80E024E630E0B90197D066
:100680007BBD6ABD9E2F80E0B90191D079BD68BD68
:10069000089580EC90E09BBD8ABD8FE890E099BD05
:1006A00088BD08958BEE90E09BBD8ABD80E490E00C
:1006B00099BD88BD089589E590E09BBD8ABD83EB17
:1006C00090E099BD88BD08951BBC1ABC19BC18BC2C
:1006D0000895C09906C0979A969882B39598C09A43
:1006E00008959698979A82B39598C09A0895C0995C
:1006F00003C0979A969808959698979A089582B30A
:100700009598C09A089510BC83E089B98BB11BB845
:100710008AB11AB880B510BC599A8AB188698AB969
:1007200080B5866880BD08955D9BFECF8CB9089525
:100730005F9BFECF8CB18093AB00089528E030E042
:10074000AC01022E02C0559547950A94E2F75D9BD5
:10075000FECF4CB9285030404FEF283F340781F787
:1007600008951F920F920FB60F9211248F938CB1A0
:100770008093AB005D9BFECF8CB98F910F900FBE25
:100780000F901F901895AA1BBB1B51E107C0AA1F11
:10079000BB1FA617B70710F0A61BB70B881F991F22
:1007A0005A95A9F780959095BC01CD01089597FBC6
:1007B000092E07260AD077FD04D0E5DF06D00020F9
:1007C0001AF4709561957F4F0895F6F7909581958D
:0807D0009F4F0895F894FFCF3C
:1007D800A9015E012201F200CB00AE009600840060
:1007E80075006A006100590053004D00470043003E
:1007F8003E003900350031002E002A002700240071
:0808080020001C001700000095
:00000001FF
