:020000040800F2
:1000000038060020B50B0008090C0008090C000890
:10001000090C0008090C0008090C0008090C00086C
:10002000090C0008090C0008090C0008090C00085C
:10003000090C0008090C0008090C0008090C00084C
:10004000090C0008090C0008090C0008090C00083C
:10005000090C0008090C0008090C0008090C00082C
:10006000090C0008090C0008090C00081908000810
:10007000090C0008090C0008C9080008090C000850
:10008000090C0008090C0008090C0008090C0008FC
:10009000090C0008090C0008090C0008090C0008EC
:1000A000090C0008090C0008090C0008F1070008F9
:1000B000090C0008090C0008090C0008090C0008CC
:1000C000090C0008090C0008090C0008090C0008BC
:1000D000090C0008D1070008090C0008090C0008E9
:1000E000090C0008090C0008090C0008090C00089C
:1000F000090C0008090C0008090C0008090C00088C
:10010000090C0008090C0008090C0008090C00087B
:10011000090C0008090C0008090C0008090C00086B
:10012000090C0008090C0008090C0008090C00085B
:1001300040F21013C2F200031A780AB901201870B5
:10014000704700BF40F21010C2F2000008B503680B
:100150002BB140F20003C0F2000303B1984708BD81
:1001600080B584B000AF78603E4BFB60374B5A6877
:10017000364B9A60354B1A68344B5A60334B7A6869
:100180001A60334B5A68324B9A60314B1A68304BC5
:100190005A604FF00003BB601AE02E4BBA6853F868
:1001A0002230184602F0D0FF0246284BB96853F8B7
:1001B00021301046194603F01BF80346F86819462B
:1001C00002F00EFF0346FB60BB6803F10103BB6056
:1001D000214B1B68BA689A42DFDB4FF00103BB601A
:1001E0001AE01E4BBA6853F82230184602F0ACFFF2
:1001F0000246174BB96853F821301046194602F0F1
:10020000F7FF0346F868194602F0E8FE0346FB6074
:10021000BB6803F10103BB60114B1B68BA689A42CB
:10022000DFDB0E4B1B68184602F08EFF0346F868B2
:10023000194603F091F80346FB60054BFA681A6013
:10024000FB68184607F11007BD4680BDF00100208D
:10025000FC010020CC350008C8350008DC3500085A
:10026000D83500080000000080B586B000AF786087
:100270004FF000033B61EFE0834B7B617C493A69BF
:1002800013464FEA43039B184FEA8303CB1803F14D
:100290000403196876483A6913464FEA43039B18EA
:1002A0004FEA8303C31803F10803196070493A69E0
:1002B00013464FEA43039B184FEA8303CB18196890
:1002C0006B483A6913464FEA43039B184FEA83038E
:1002D000C31803F10403196065493A6913464FEAEC
:1002E00043039B184FEA8303CB187A681A6061496D
:1002F0003A6913464FEA43039B184FEA8303CB182E
:1003000003F1040319685B483A6913464FEA430353
:100310009B184FEA8303C31803F10803196055497A
:100320003A6913464FEA43039B184FEA8303CB18FD
:10033000196850483A6913464FEA43039B184FEA3D
:100340008303C31803F1040319604FF00003FB603B
:1003500026E049493A6913464FEA43039B18FA6875
:100360009B1851F82330184602F0EEFE0146404833
:100370003A6913464FEA43039B18FA689B1850F8F2
:1003800023300846194602F033FF034678691946C0
:1003900002F026FE03467B61FB6803F10103FB606C
:1003A000364B3A6953F82220FB689A42D1DC4FF071
:1003B0000103FB6026E032493A6913464FEA4303E2
:1003C0009B18FA689B1851F82330184602F0BCFEBF
:1003D000014628483A6913464FEA43039B18FA68D6
:1003E0009B1850F823300846194602F001FF0346D7
:1003F0007869194602F0F2FD03467B61FB6803F160
:100400000103FB601F4B3A6953F82220FB689A42B4
:10041000D1DC1B493A6913464FEA43039B184FEA64
:100420008303CB181B68184602F08EFE03467869DA
:10043000194602F091FF03467B610E493A69134663
:100440004FEA43039B184FEA8303CB187A691A607B
:100450003B6903F101033B613B69082B7FF70CAF5C
:10046000044B1B6E184607F11807BD4680BD00BF40
:1004700084010020180100200C360008E83500082F
:100480009C360008783600080000000080B582B075
:1004900000AF01F065F94FF4803001F099F901F0F7
:1004A000C5F90346FB71FB79012B2FD14FF01000EA
:1004B00000F0CEFF4FF0020000F0ACFF4FF0000064
:1004C00001F044FA4FF0000001F07CFA4FF4806034
:1004D00001F05AFA4FF480304FF4A01101F0D8F92E
:1004E0004FF0010001F0F6F900BF4FF0390001F0C4
:1004F000E7FB0346002BF8D04FF0020001F0FAF9B9
:1005000000BF01F015FA0346082BFAD14FF00300A3
:100510004FF0010101F090FB40F649004FF001015E
:1005200001F0ACFB4FF480404FF0010101F0A6FB5D
:100530004FF4004001F066FA4FF404704FF00101EF
:1005400001F09CFB07F10807BD4680BD80B582B075
:1005500000AF4FF01003FB714CF27003BB804FF003
:100560000303BB7107F104030E48194600F088FF2E
:100570000C484FF4804101F063F80A484FF4004101
:1005800001F05EF84FF010033B804FF00003FB706A
:100590003B460548194600F073FF07F10807BD46C2
:1005A00080BD00BF001801400010014080B586B03A
:1005B00000AF4FF41653BB604FF00003BB814FF008
:1005C0000003FB814FF000033B824FF00003BB822E
:1005D0004FF00C037B824FF004004FF0010101F05B
:1005E0003DF84FF01803FB714FF04003BB804FF014
:1005F0000303BB7107F104030C48194600F040FFE8
:100600004FF00403FB714FF08003BB8007F104033C
:100610000648194600F034FF07F10803044819465C
:1006200001F032FD07F11807BD4680BD000C014006
:100630000038014080B588B000AF4FF000037B83E5
:100640004FF00003FB824FF04603BB824FF0C8031C
:100650003B8307F114030D48194601F073FB4FF07B
:100660006003BB804FF00103FB804FF07F037B8171
:100670004FF00203BB8107F104030448194601F05F
:10068000E1FB07F12007BD4680BD00BF002C014003
:1006900080B596B000AF324800F01CFD314BFB62D4
:1006A000314B3B634FF010037B63304B1B68BB63E4
:1006B0004FF00003FB634FF080033B644FF00003F7
:1006C0007B644FF00003BB644FF00003FB644FF406
:1006D00000533B654FF000037B6507F12C03204876
:1006E000194600F0B7FD1E484FF002014FF001021D
:1006F00000F010FE4FF4005000F02AFE1C4800F0FD
:10070000E9FC1C4B3B601C4B7B604FF00003BB6063
:100710004FF00103FB604FF000033B614FF000031B
:100720007B614FF48073BB614FF48063FB614FF0DA
:1007300020033B624FF400537B624FF00003BB6227
:100740003B460B48194600F085FD09484FF0020171
:100750004FF0010200F0DEFD07F15807BD4680BDF5
:100760004400024004380140140200200000002030
:10077000080002404C2401401201002080B586B0E0
:1007800000AF4FF000037B604FF000033B724FF06F
:1007900000037B724FF00003FB604FF000033B61EE
:1007A0004FF001033B7507F104030848194600F0B8
:1007B0009FFA06484FF00E014FF001024FF003037D
:1007C00000F084FB07F11807BD4680BD00240140FE
:1007D00080B500AF054840F2255101F073FD034894
:1007E00040F2277101F06EFD80BD00BF003801406E
:1007F00080B500AF06484FF0020101F001FC03464E
:10080000002B04D002484FF0020101F02BFC80BD08
:10081000002C01400000000080B582B000AF4FF016
:10082000020000F0AFFD0346002B3BD0224B1B889B
:10083000184602F07FF802460B46104619461CA3E4
:10084000D3E9002302F0DCF802460B4610461946B5
:100850004FF000024FF0804303F5300302F0FAF945
:1008600002460B461046194602F064FB0246134B43
:100870001A60134B1B78012B0CD14FF000037B60E7
:1008800004E000BF7B6803F101037B607A680D4BD5
:100890009A42F6DD0A4B4FF001021A704FF0020047
:1008A00000F09EFD07F10807BD4680BDAFF3008054
:1008B0006666666666660A40120100201002002025
:1008C000140100209F86010080B58CB000AF4FF46A
:1008D000005000F057FD0346002B2BD04FF4005082
:1008E00000F07EFD154800F0F5FB154B7B60154BC5
:1008F000BB604FF01003FB60134B1B683B614FF074
:1009000000037B614FF08003BB614FF00003FB618C
:100910004FF000033B624FF000037B624FF4005343
:10092000BB624FF00003FB6207F104030348194662
:1009300000F090FC07F13007BD4680BD4400024046
:1009400004380140140200200000002080B582B06D
:1009500000AF4FF00B033B714FF000037B714FF082
:100960000003BB714FF00103FB7107F1040318464C
:1009700000F052F94FF00E033B704FF000037B7014
:100980004FF00003BB704FF00103FB703B4618466D
:1009900000F042F907F10807BD4680BD80B584B07C
:1009A00000AFFFF773FDFFF7D1FFFFF7CFFDFFF7B4
:1009B000E5FEFFF7FBFDFFF76BFEFFF73BFE704B1D
:1009C000794A1A606F4B784A1A604FF00003FB6057
:1009D0000CE0FB68DBB203F14103DAB26A49FB6861
:1009E000CB181A70FB6803F10103FB60FB68092B4D
:1009F000EFDD66484FF0010101F01EFC63484FF047
:100A000080014FF0010201F037FC61484FF0010115
:100A100000F062FC5F484FF0010100F0E3F95D482F
:100A20004FF0010100F03AFB5A484FF0010100F08D
:100A3000BDF9584800F0F2F900BF564800F0FEF941
:100A40000346002BF9D1534800F014FA00BF514877
:100A500000F020FA0346002BF9D14F484FF0010176
:100A600001F086FA4C484FF0010101F0A1FA00E0D4
:100A700000BF4A4B1B78002BFAD0494B1B68184625
:100A8000FFF76EFB0246464B1A60454B1B68184643
:100A9000FFF7EAFB0246424B1A60414B1A68404B93
:100AA0001B681046194602F0A3FB03461A46344B56
:100AB0001B681046194602F093FA03461A46304B5B
:100AC0001A60304B1B681846384902F089FA034611
:100AD0001A462C4B1A602B4B1B681846344902F0FF
:100AE0001BFD0346002B45D0254B1B68184630499B
:100AF00002F032FC03461A46214B1A60204B1B6859
:100B0000184601F029FF02460B461046194601F02F
:100B10003FFC02460B461046194602F00BFA02460D
:100B2000174B1A60164B1B68184602F027FD034648
:100B30007B604FF00003BB600EE0BB684FEAC3036D
:100B40007A6822FA03F3DAB20F49BB68CB181A703D
:100B5000BB6803F10103BB60BB68032BEDD91148EF
:100B60004FF0010100F0B8FB064B0F4A1A60044B2E
:100B70000D4A1A60094B4FF000021A7079E700BF66
:100B8000340200200C020020140200200038014032
:100B90000800024000240140002C01401401002004
:100BA0001002002044000240000000000000803FCE
:100BB00000409C450E4880F309880E490E4A0F4BB1
:100BC0009A423EBF51F8040B42F8040BF8E70020AC
:100BD0000B490C4A91423CBF41F8040BFAE7022052
:100BE00080F31488BFF36F8FFFF7D8FEFEE7000095
:100BF000380A0020343700080000002010010020CF
:100C00001001002038020020684620F007018D46C0
:100C100081B400AFFEE700BF80B487B000AF78605A
:100C20004FF000037B614FF000033B614FF00F0377
:100C3000FB607B68DB78002B3FD02B4BDB686FEAD7
:100C4000030303F4E0634FEA13237B617B69C3F181
:100C500004033B617B69FA6822FA03F3FB607B685B
:100C60005B781A463B6902FA03F37B617B689B78E9
:100C70001A46FB6802EA03037A6942EA03037B61CE
:100C80007B694FEA03137B6118497B681B787A699B
:100C9000D2B2CB1883F80023144B7A6812784FEA4B
:100CA0005212D2B27968097801F01F014FF00100A9
:100CB00000FA01F143F8221011E00C4B7A68127827
:100CC0004FEA5212D2B27968097801F01F014FF051
:100CD000010000FA01F102F1200243F8221007F1AD
:100CE0001C07BD4680BC704700ED00E000E100E05D
:100CF00080B485B000AF786039604FF00003FB60CE
:100D00004FF00003FB727B685B68FB60FB6823F4B9
:100D1000702323F48073FB603B681A683B681B797F
:100D20004FEA032342EA0303FA6842EA0303FB6043
:100D30007B68FA685A607B689B68FB60FA681A4BAC
:100D400002EA0303FB603B68DA683B689B681A436E
:100D50003B685B794FEA430342EA0303FA6842EADD
:100D60000303FB607B68FA689A607B68DB6AFB6060
:100D7000FB6823F47003FB603B681B7C03F1FF33CB
:100D8000DAB2FB7A42EA0303FB72FB7A4FEA0353BF
:100D9000FA6842EA0303FB607B68FA68DA6207F1EB
:100DA0001407BD4680BC7047FDF7F1FF80B483B0E7
:100DB00000AF78600B46FB70FB78002B06D07B6899
:100DC0009B6843F001027B689A6005E07B689B6842
:100DD00023F001027B689A6007F10C07BD4680BCD6
:100DE000704700BF80B483B000AF78600B46FB70E3
:100DF000FB78002B06D07B689B6843F480727B688D
:100E00009A6005E07B689B6823F480727B689A6037
:100E100007F10C07BD4680BC704700BF80B483B0AB
:100E200000AF78607B689B6843F008027B689A603B
:100E300007F10C07BD4680BC704700BF80B485B089
:100E400000AF78604FF00003FB737B689B6803F092
:100E50000803002B03D04FF00103FB7302E04FF0B7
:100E60000003FB73FB7B184607F11407BD4680BCEB
:100E7000704700BF80B483B000AF78607B689B6828
:100E800043F004027B689A6007F10C07BD4680BC02
:100E9000704700BF80B485B000AF78604FF00003AA
:100EA000FB737B689B6803F00403002B03D04FF0B7
:100EB0000103FB7302E04FF00003FB73FB7B18465A
:100EC00007F11407BD4680BC704700BF80B485B0F1
:100ED00000AF7860F970BA707B704FF00003FB6070
:100EE0004FF00003BB60FB78092B29D97B68DB68D6
:100EF000FB60FA7813464FEA43039B18A3F11E03E5
:100F00004FF0070202FA03F3BB60BB686FEA03030A
:100F1000FA6802EA0303FB607978FA7813464FEA2D
:100F200043039B18A3F11E0301FA03F3BB60FA68A5
:100F3000BB6842EA0303FB607B68FA68DA6024E07E
:100F40007B681B69FB60FA7813464FEA43039B18E2
:100F50004FF0070202FA03F3BB60BB686FEA0303BA
:100F6000FA6802EA0303FB607978FA7813464FEADD
:100F700043039B1801FA03F3BB60FA68BB6842EABB
:100F80000303FB607B68FA681A61BB78062B29D8DB
:100F90007B685B6BFB60BB7803F1FF3213464FEA63
:100FA00083039B184FF01F0202FA03F3BB60BB6878
:100FB0006FEA0303FA6802EA0303FB60F978BB787F
:100FC00003F1FF3213464FEA83039B1801FA03F340
:100FD000BB60FA68BB6842EA0303FB607B68FA689F
:100FE0005A6355E0BB780C2B29D87B681B6BFB60E0
:100FF000BA7813464FEA83039B18A3F123034FF0FB
:101000001F0202FA03F3BB60BB686FEA0303FA68CE
:1010100002EA0303FB60F978BA7813464FEA8303C8
:101020009B18A3F1230301FA03F3BB60FA68BB68C2
:1010300042EA0303FB607B68FA681A6328E07B6876
:10104000DB6AFB60BA7813464FEA83039B18A3F16F
:1010500041034FF01F0202FA03F3BB60BB686FEA63
:101060000303FA6802EA0303FB60F978BA781346CF
:101070004FEA83039B18A3F1410301FA03F3BB601A
:10108000FA68BB6842EA0303FB607B68FA68DA62CD
:1010900007F11407BD4680BC704700BF80B483B021
:1010A00000AF78600B46FB70FB78002B06D07B68A6
:1010B0009B6843F480127B689A6005E07B689B68BC
:1010C00023F480127B689A6007F10C07BD4680BC50
:1010D000704700BF80B483B000AF78607B681A6847
:1010E0004FF6FE7302EA03037A6813607B684FF0E1
:1010F00000021A607B684FF000025A607B684FF074
:1011000000029A607B684FF00002DA607A68434B15
:101110009A4206D1424B424A526842F00F025A604C
:1011200077E07A683F4B9A4206D13D4B3C4A526881
:1011300042F0F0025A606CE07A683B4B9A4206D16A
:10114000374B374A526842F470625A6061E07A68FD
:10115000364B9A4206D1324B314A526842F47042C1
:101160005A6056E07A68324B9A4206D12C4B2C4A90
:10117000526842F470225A604BE07A682D4B9A42D2
:1011800006D1274B264A526842F470025A6040E06A
:101190007A68294B9A4206D1214B214A526842F083
:1011A00070625A6035E07A68244B9A4206D1244B2B
:1011B000234A526842F00F025A602AE07A68214BB3
:1011C0009A4206D11E4B1E4A526842F0F0025A6003
:1011D0001FE07A681C4B9A4206D1194B184A526894
:1011E00042F470625A6014E07A68184B9A4206D151
:1011F000134B134A526842F470425A6009E07A680D
:10120000134B9A4205D10E4B0D4A526842F470229C
:101210005A6007F10C07BD4680BC704708000240C9
:10122000000002401C000240300002404400024026
:10123000580002406C000240800002400804024056
:10124000000402401C0402403004024044040240F6
:101250005804024080B485B000AF786039604FF028
:101260000003FB607B681B68FB60FB6823F4FE43A4
:1012700023F0F003FB603B689A683B681B6A1A43E3
:101280003B681B691A433B685B691A433B689B696F
:101290001A433B68DB691A433B685B6A1A433B6845
:1012A0009B6A42EA0303FA6842EA0303FB607B6835
:1012B000FA681A603B68DA687B685A603B681A68AB
:1012C0007B689A603B685A687B68DA6007F11407AC
:1012D000BD4680BC704700BF80B483B000AF78606B
:1012E0000B46FB70FB78002B06D07B681B6843F035
:1012F00001027B681A6007E07B681A684FF6FE738C
:1013000002EA03037A68136007F10C07BD4680BC4C
:10131000704700BF80B485B000AFF860B960134675
:10132000FB71FB79002B06D0FB681A68BB681A4377
:10133000FB681A6007E0FB681A68BB686FEA030382
:101340001A40FB681A6007F11407BD4680BC70475D
:1013500080B483B000AF78607B6803F08053002BCB
:1013600003D0064B7A685A6002E0054B7A685A60EF
:1013700007F10C07BD4680BC704700BF0004024067
:101380000000024080B485B000AF78604FF00003E9
:10139000FB734FF00003BB607B6803F08053002BAE
:1013A00003D00D4B1B68BB6002E00C4B1B68BB609D
:1013B000BA687B6802EA0303002B03D04FF00103F5
:1013C000FB7302E04FF00003FB73FB7B184607F151
:1013D0001407BD4680BC7047000402400000024074
:1013E00080B483B000AF78607B6803F08053002B3B
:1013F00003D0064B7A685A6002E0054B7A685A605F
:1014000007F10C07BD4680BC704700BF00040240D6
:101410000000024080B485B000AF78604FF0000358
:10142000FB600A4B1B68FB60FB6803F03803FB6042
:10143000FA687B6842EA0303FB60044BFA681A60AF
:1014400007F11407BD4680BC704700BF0020024072
:1014500080B483B000AF7860084B084A126822F06D
:1014600010021A60054B054A11687A6841EA0202C7
:101470001A6007F10C07BD4680BC7047002002408F
:1014800080B489B000AF786039604FF00003FB6131
:101490004FF000033B614FF00003BB614FF00003CE
:1014A000FB604FF000037B614FF00003BB603B68C3
:1014B000DB7803F00F03FB613B68DB7803F010037C
:1014C000002B05D03B689B78FA6942EA0303FB6175
:1014D0003B681B8803F0FF03002B51D07B681B681F
:1014E0007B614FF00003BB6144E0BB694FF0010238
:1014F00002FA03F3FB603B681B881A46FB6802EAAA
:1015000003033B613A69FB689A422FD1BB694FEAFA
:101510008303FB60FB684FF00F0202FA03F3BB602A
:10152000BB686FEA03037A6902EA03037B61FB6825
:10153000FA6902FA03F37A6942EA03037B613B68C2
:10154000DB78282B07D1BB694FF0010202FA03F2C6
:101550007B685A610AE03B68DB78482B06D1BB699F
:101560004FF0010202FA03F27B681A61BB6903F1D2
:101570000103BB61BB69072BB7D97B687A691A6025
:101580003B681B88FF2B56D97B685B687B614FF0FB
:101590000003BB6149E0BB6903F108034FF001029E
:1015A00002FA03F3FB603B681B881A46FB6802EAF9
:1015B00003033B613A69FB689A4232D1BB694FEA47
:1015C0008303FB60FB684FF00F0202FA03F3BB607A
:1015D000BB686FEA03037A6902EA03037B61FB6875
:1015E000FA6902FA03F37A6942EA03037B613B6812
:1015F000DB78282B08D1BB6903F108034FF0010207
:1016000002FA03F27B685A613B68DB78482B08D109
:10161000BB6903F108034FF0010202FA03F27B6891
:101620001A61BB6903F10103BB61BB69072BB2D926
:101630007B687A695A6007F12407BD4680BC704711
:1016400080B483B000AF78600B467B807A887B687B
:101650005A6107F10C07BD4680BC704780B487B063
:1016600000AF78600B46FB704FF000033B614FF01A
:101670000003FB604FF000037B614FF00003BB6091
:101680007B68002B03DA354BDB697B6102E0334B6F
:101690005B687B617B6803F470234FEA1343BB6094
:1016A0007B684FEA03434FEA13433B617B6803F4D3
:1016B0004013B3F5401F0AD17B6923F070637B614F
:1016C000264B264A526822F070625A6028E07B68F6
:1016D00003F48013002B11D0BB684FF0030202FA11
:1016E00003F3FB60FB686FEA03037A6902EA030312
:1016F0007B617B6943F070637B6111E07B684FEA3B
:1017000053534FEA03133A6902FA03F36FEA0303F0
:101710007A6902EA03037B617B6943F070637B6152
:10172000FB78002B0BD07B684FEA53534FEA03132F
:101730003A6902FA03F37A6942EA03037B617B6840
:10174000002B03DA054B7A69DA6102E0034B7A6910
:101750005A6007F11C07BD4680BC7047000001407D
:1017600080B400AF184B184A126842F001021A60A8
:10177000154A154B5968154B01EA03035360124A89
:10178000114B1B6823F0847323F4803313600E4BDA
:101790000D4A126822F480221A600B4B0A4A5268E2
:1017A00022F4FE025A60084B074A126822F0A05247
:1017B0001A60054B4FF47F029A60034B4FF0000212
:1017C000DA62BD4680BC7047001002400000FFF0A6
:1017D00080B483B000AF7860134B134A126822F4D0
:1017E00080321A60104B104A126822F480221A606C
:1017F0007B68B3F5803F03D0B3F5802F07D00DE0B1
:10180000094B094A126842F480321A6006E0064B1E
:10181000054A126842F4A0221A6000BF07F10C07C3
:10182000BD4680BC704700BF0010024080B582B04A
:1018300000AF4FF000033B604FF00003FB714FF02F
:101840000003BB714FF0310000F03AFA0346BB7160
:101850003B6803F101033B603B68B3F5A06F02D026
:10186000BB79002BEED04FF0310000F029FA03468F
:10187000002B03D04FF00103FB7102E04FF0000397
:10188000FB71FB79184607F10807BD4680BD00BF14
:1018900080B485B000AF786039604FF00003FB6022
:1018A0000B4B5B68FB60FB6823F47413FB607A6886
:1018B0003B6842EA0303FA6842EA0303FB60044B15
:1018C000FA685A6007F11407BD4680BC704700BF34
:1018D0000010024080B483B000AF0346FB71044B9C
:1018E000FA791A6007F10C07BD4680BC704700BF4B
:1018F0006000424280B485B000AF78604FF00003D2
:10190000FB600A4B5B68FB60FB6823F00303FB6032
:10191000FA687B6842EA0303FB60044BFA685A608A
:1019200007F11407BD4680BC704700BF001002409D
:1019300080B400AF044B5B68DBB203F00C03DBB296
:101940001846BD4680BC70470010024080B485B088
:1019500000AF78604FF00003FB600A4B5B68FB60F0
:10196000FB6823F0F003FB60FA687B6842EA03033C
:10197000FB60044BFA685A6007F11407BD4680BC4F
:10198000704700BF0010024080B485B000AF78609F
:101990004FF00003FB600A4B5B68FB60FB6823F4BD
:1019A000E063FB60FA687B6842EA0303FB60044B78
:1019B000FA685A6007F11407BD4680BC704700BF43
:1019C0000010024080B485B000AF78604FF0000393
:1019D000FB600B4B5B68FB60FB6823F46053FB60B0
:1019E0007B684FEAC303FA6842EA0303FB60044BD7
:1019F000FA685A6007F11407BD4680BC704700BF03
:101A00000010024080B485B000AF78604FF0000352
:101A1000FB600A4B5B68FB60FB6823F44043FB60A0
:101A2000FA687B6842EA0303FB60044BFA685A6079
:101A300007F11407BD4680BC704700BF001002408C
:101A400080B48BB000AF78604FF000033B624FF082
:101A500000037B624FF00003FB614FF00003BB61AA
:101A60004FF000037B614FF000033B614FF0000338
:101A7000FB604FF00003BB60694B5B6803F00C0335
:101A80003B623B6A042B07D0082B09D0002B65D1A1
:101A90007B68644A1A6065E07B68634A1A6061E0AB
:101AA0005F4B5B6803F470137B625D4B5B6803F410
:101AB0008033FB617B6A4FEA93437B627B6A0D2B29
:101AC00004D07B6A03F102037B6202E04FF006035D
:101AD0007B62FB69002B06D17B6A544A02FB03F24E
:101AE0007B681A603EE04E4BDB6A03F480337B6117
:101AF0004B4BDB6A03F00F0303F101033B617B698E
:101B0000002B09D1484A3B69B2FBF3F37A6A02FB26
:101B100003F27B681A6025E0414BDB6A03F0F003B7
:101B20004FEA131303F10103FB603D4BDB6A03F43F
:101B300070634FEA132303F10203BB603A4AFB6868
:101B4000B2FBF3F3BA6802FB03F23B69B2FBF3F3B7
:101B50007A6A02FB03F27B681A6003E07B68314A11
:101B60001A6000BF2E4B5B6803F0F0033B623B6AD8
:101B70004FEA13133B622E4A3B6AD3181B78DBB241
:101B8000BB617B681A68BB6922FA03F27B685A6002
:101B9000234B5B6803F4E0633B623B6A4FEA132329
:101BA0003B62234A3B6AD3181B78DBB2BB617B687C
:101BB0005A68BB6922FA03F27B689A60184B5B682B
:101BC00003F460533B623B6A4FEAD3233B62184AFB
:101BD0003B6AD3181B78DBB2BB617B685A68BB6970
:101BE00022FA03F27B68DA600D4B5B6803F4404332
:101BF0003B623B6A4FEA93333B620E4A3B6AD3181F
:101C00001B78DBB2BB617B68DA68BB69B2FBF3F2BD
:101C10007B681A6107F12C07BD4680BC704700BF86
:101C20000010024000127A008096980000093D00E2
:101C3000040000201400002080B483B000AF78605E
:101C40000B46FB70FB78002B07D00B4B0A4A5169FF
:101C50007A6841EA02025A6108E0074B064A516974
:101C60007A686FEA020201EA02025A6107F10C0780
:101C7000BD4680BC704700BF0010024080B483B0F6
:101C800000AF78600B46FB70FB78002B07D00B4B46
:101C90000A4A91697A6841EA02029A6108E0074BB0
:101CA000064A91697A686FEA020201EA02029A61C1
:101CB00007F10C07BD4680BC704700BF0010024012
:101CC00080B487B000AF0346FB714FF00003FB60A8
:101CD0004FF000037B614FF00003FB74FB794FEA88
:101CE0005313DBB2FB60FB68012B03D1144B1B6861
:101CF0007B6109E0FB68022B03D1114B1B6A7B61FE
:101D000002E00F4B5B6A7B61FB7903F01F03FB6012
:101D1000FB687A6922FA03F303F00103DBB2002BBC
:101D200003D04FF00103FB7402E04FF00003FB749B
:101D3000FB7C184607F11C07BD4680BC704700BFFE
:101D40000010024080B485B000AF786039604FF079
:101D50000003FB817B681B88FB817A682F4B9A42CA
:101D600013D07A682E4B9A420FD07B68B3F1804F24
:101D70000BD07A682B4B9A4207D07A682A4B9A424A
:101D800003D07A68294B9A4209D1FB8923F070036A
:101D9000FB813B685A88FB8942EA0303FB817A682E
:101DA000234B9A420DD07A68224B9A4209D0FB8984
:101DB00023F44073FB813B68DA88FB8942EA030322
:101DC000FB817B68FA891A803B689A887B689A85D0
:101DD0003B681A887B681A857A68104B9A420FD044
:101DE0007A680F4B9A420BD07A68134B9A4207D00D
:101DF0007A68124B9A4203D07A68114B9A4204D106
:101E00003B681B7A1A467B681A867B684FF0010292
:101E10009A8207F11407BD4680BC7047002C014030
:101E2000003401400004004000080040000C004065
:101E300000100040001400400040014000440140F8
:101E40000048014080B485B000AF786039604FF041
:101E500000037B814FF00003FB814FF00003BB8147
:101E60007B681B8C9BB223F001039AB27B681A84B7
:101E70007B681B8CFB817B689B88BB817B681B8B91
:101E80007B817B8923F070037B817B8923F00303B3
:101E90007B813B681A887B8942EA03037B81FB894B
:101EA00023F00203FB813B681A89FB8942EA0303A2
:101EB000FB813B685A88FB8942EA0303FB817A680D
:101EC000264B9A420FD07A68254B9A420BD07A68FB
:101ED000244B9A4207D07A68234B9A4203D07A68FF
:101EE000224B9A4227D1FB8923F00803FB813B68F0
:101EF0005A89FB8942EA0303FB81FB8923F004032F
:101F0000FB813B689A88FB8942EA0303FB81BB891A
:101F100023F48073BB81BB8923F40073BB813B68CE
:101F20009A89BB8942EA0303BB813B68DA89BB8992
:101F300042EA0303BB817B68BA899A807B687A890D
:101F40001A833B68DA887B689A867B68FA891A84E8
:101F500007F11407BD4680BC704700BF002C01404C
:101F6000003401400040014000440140004801406D
:101F700080B483B000AF78600B46FB70FB78002B19
:101F800008D07B681B889BB243F001039AB27B6840
:101F90001A8007E07B681B889BB223F001039AB28A
:101FA0007B681A8007F10C07BD4680BC704700BFF4
:101FB00080B483B000AF78600B46FB70FB78002BD9
:101FC0000CD07B68B3F844309BB26FEA43436FEAAE
:101FD00053439AB27B68A3F844200BE07B68B3F8C4
:101FE00044309BB24FEA43434FEA53439AB27B6873
:101FF000A3F8442007F10C07BD4680BC704700BF22
:1020000080B485B000AF78600B467B804FF0000352
:10201000FB734FF00003BB814FF000037B817B68B3
:102020001B8A9AB27B8802EA0303BB817B689B8987
:102030009AB27B8802EA03037B81BB89002B06D01E
:102040007B89002B03D04FF00103FB7302E04FF0BC
:102050000003FB73FB7B184607F11407BD4680BCE9
:10206000704700BF80B483B000AF78600B467B80C0
:102070007B886FEA03039AB27B681A8207F10C0728
:10208000BD4680BC704700BF80B58CB000AF7860A3
:1020900039604FF00003FB624FF00003BB624FF06A
:1020A00000037B624FF000033B624FF00003FB61D3
:1020B0007B68FB617B681B8A9BB2FB62FA6A4CF609
:1020C000FF7302EA0303FB623B68DB88FA6A42EAB9
:1020D0000303FB62FB6A9AB27B681A827B689B8966
:1020E0009BB2FB62FA6A4EF6F31302EA0303FB6249
:1020F0003B689A883B681B8942EA03039AB23B68B3
:102100005B8942EA03039BB2FA6A42EA0303FB6279
:10211000FB6A9AB27B689A817B689B8A9BB2FB625E
:10212000FA6A4FF6FF4302EA0303FB623B689B89AE
:10213000FA6A42EA0303FB62FB6A9AB27B689A82FC
:1021400007F108031846FFF77BFCFA69384B9A42FF
:1021500002D17B69BB6201E03B69BB627B689B8902
:102160009BB29BB21BB2002B0FDABA6A13464FEA3E
:1021700083039B184FEA83029A183B681B684FEA57
:102180004303B2FBF3F37B620EE0BA6A13464FEAF5
:1021900083039B184FEA83029A183B681B684FEA37
:1021A0008303B2FBF3F37B627A6A224BA3FB021335
:1021B0004FEA53134FEA0313FB62FB6A4FEA131310
:1021C0004FF0640202FB03F37A6AD31A3B627B6826
:1021D0009B899BB29BB21BB2002B10DA3B6A4FEA81
:1021E000C30303F13202134BA3FB02134FEA531351
:1021F00003F00703FA6A42EA0303FB620FE03B6A5B
:102200004FEA031303F132020A4BA3FB02134FEA16
:10221000531303F00F03FA6A42EA0303FB62FB6AFB
:102220009AB27B681A8107F13007BD4680BD00BFB6
:10223000003801401F85EB5180B483B000AF786057
:102240000B46FB70FB78002B08D07B689B899BB208
:1022500043F400539AB27B689A8107E07B689B89BC
:102260009BB223F400539AB27B689A8107F10C0762
:10227000BD4680BC704700BF80B483B000AF7860BB
:1022800013460A467A807B707B78002B09D07B68E6
:102290009B8A9AB27B8842EA03039AB27B689A824D
:1022A0000BE07B689B8A9AB27B886FEA03039BB240
:1022B00002EA03039AB27B689A8207F10C07BD46D3
:1022C00080BC704780B487B000AF78600B467B80DD
:1022D0004FF00003FB604FF000037B614FF0000301
:1022E000BB604FF00003FB747B88DBB24FEA5313F3
:1022F000DBB2BB607B8803F01F037B617B694FF01F
:10230000010202FA03F37B61BB68012B07D17B68F2
:102310009B899BB27A6902EA03037B6111E0BB6887
:10232000022B07D17B681B8A9BB27A6902EA0303FE
:102330007B6106E07B689B8A9BB27A6902EA0303B1
:102340007B617B884FEA13239BB2FB60FB684FF0F5
:10235000010202FA03F3FB607B681B889BB2FA68F8
:1023600002EA0303FB607B69002B06D0FB68002BAD
:1023700003D04FF00103FB7402E04FF00003FB7445
:10238000FB7C184607F11C07BD4680BC704700BFA8
:102390002DE9704F8AB004460D4600F04FF840F228
:1023A0001806C2F2000696F90030B3F1FF3F8046EE
:1023B000894631D02046294600F020F900282BD04C
:1023C0004FF0000A4FF0000B2046294652465B466C
:1023D00000F088FD00B3367843F20873C0F60003BE
:1023E00001220193002300920893CDE90445CDE931
:1023F0000245B6B15046594652465B4600F02AFCAB
:10240000022ECDE906010ED101F0D8F82123036098
:10241000089B73B9DDE90689404649460AB0BDE824
:10242000708FCDE906AB684600F030F90028EFD197
:10243000EAE701F0C3F8089B0360EBE74FF0000CFC
:1024400002462DE9F843E046C7F6F07CC7F6F0787F
:1024500001EA0C0C0446C4450D460B460E460746E1
:1024600000F0B080002940F3A0800A157ED026F04D
:102470007F4312F0010FA2F57E7C23F47003ACF1D0
:10248000070C43F4801362D0FA0F002602EB4303DB
:102490004FEA6C0C7F00162031464FF400128C1866
:1024A000FD0F9C424FEA4707DEBFC4EB0303A118B0
:1024B000B6185208013805EB4303F0D120258046B9
:1024C0004FF00042994202EB08040EDB8B4214BF2E
:1024D0004FF000094FF00109BC428CBF4FF00009DA
:1024E00009F00109B9F1000F0ED004F0004904EB26
:1024F0000208B9F1004F23D089465B1ABC4288BF5D
:10250000013B3F1B80184946FC0F52087F00013DEC
:1025100004EB4303D6D13B431ED140084FEA0C5293
:10252000731002F17E5216F0010F18BF40F0004008
:1025300002F5C002D518044620462946BDE8F883B6
:10254000B8F1000FA8BF01F10109D6DAD4E7FA0FFC
:102550007F0002EB430397E7B0F1FF3F1CBF00F0A1
:1025600001031818D9D101362846D7E7012216F4FD
:10257000801335D17600013316F4801FFAD0C3F1F1
:10258000200137FA01F1D21A0E439F4026F07F4313
:1025900012F0010FA2F57E7C23F47003ACF1070C5E
:1025A00043F480137FF470AFD1E721F0004C5CEA74
:1025B000000CC1D0B9B9FE0A153B7F05002EFAD038
:1025C0005A1CD4E700F01CFA02460B462046294666
:1025D00000F064F804460D4620462946BDE8F8831D
:1025E00020210023CDE702460B4600F055F80246B5
:1025F0000B4600F02FFB04460D469DE750EA010311
:1026000010B43CD0D0F1010238BF0022B1F1004F2C
:1026100014BF002302F00103002B30D14FF6FF73EB
:10262000A1F58010C7F6DF7301F1FE44984204F56E
:1026300070048CBF002001209C428CBF034640F0F8
:102640000103002B20D1B1F5801F01F100402CBF08
:1026500000230123B0F5801F38BF43F001038BB97D
:1026600011F5801FC7F6F07314BF002001209942B6
:1026700014BF014640F0010102EA010000E002201F
:1026800010BC70470320FBE70420F9E700207047E7
:1026900081F0004102E000BF83F0004330B54FEA13
:1026A00041044FEA430594EA050F08BF90EA020F80
:1026B0001FBF54EA000C55EA020C7FEA645C7FEA13
:1026C000655C00F0E2804FEA5454D4EB5555B8BF36
:1026D0006D420CDD2C4480EA020281EA030382EAA7
:1026E000000083EA010180EA020281EA0303362D39
:1026F00088BF30BD11F0004F4FEA01314FF4801C0C
:102700004CEA113102D0404261EB410113F0004F1D
:102710004FEA03334CEA133302D0524263EB4303D4
:1027200094EA050F00F0A780A4F10104D5F1200E72
:102730000DDB02FA0EFC22FA05F2801841F10001CD
:1027400003FA0EF2801843FA05F359410EE0A5F1A1
:1027500020050EF1200E012A03FA0EFC28BF4CF0D2
:10276000020C43FA05F3C01851EBE37101F0004588
:1027700007D54FF0000EDCF1000C7EEB00006EEB95
:102780000101B1F5801F1BD3B1F5001F0CD349081F
:102790005FEA30004FEA3C0C04F101044FEA445276
:1027A00012F5800F80F09A80BCF1004F08BF5FEAFD
:1027B000500C50F1000041EB045141EA050130BDDD
:1027C0005FEA4C0C404141EB010111F4801FA4F180
:1027D0000104E9D191F0000F04BF01460020B1FAD5
:1027E00081F308BF2033A3F10B03B3F120020CDA0D
:1027F0000C3208DD02F1140CC2F10C0201FA0CF0EB
:1028000021FA02F10CE002F11402D8BFC2F1200C4F
:1028100001FA02F120FA0CFCDCBF41EA0C01904005
:10282000E41AA2BF01EB0451294330BD6FEA04044E
:102830001F3C1CDA0C340EDC04F11404C4F1200239
:1028400020FA04F001FA02F340EA030021FA04F34B
:1028500045EA030130BDC4F10C04C4F1200220FAA2
:1028600002F001FA04F340EA0300294630BD21FAE0
:1028700004F0294630BD94F0000F83F4801306BFA6
:1028800081F480110134013D4EE77FEA645C18BF9A
:102890007FEA655C29D094EA050F08BF90EA020F31
:1028A00005D054EA000C04BF1946104630BD91EA29
:1028B000030F1EBF0021002030BD5FEA545C05D12C
:1028C0004000494128BF41F0004130BD14F580046B
:1028D0003CBF01F5801130BD01F0004545F0FE41DF
:1028E00041F470014FF0000030BD7FEA645C1ABF14
:1028F000194610467FEA655C1CBF0B46024650EA4B
:10290000013406BF52EA033591EA030F41F4002176
:1029100030BD00BF90F0000F04BF0021704730B5FC
:102920004FF4806404F132044FF000054FF00001D1
:1029300050E700BF90F0000F04BF0021704730B592
:102940004FF4806404F1320410F0004548BF404267
:102950004FF000013EE700BF42004FEAE2014FEABC
:1029600031014FEA02701FBF12F07F4393F07F4F97
:1029700081F06051704792F0000F14BF93F07F4FC9
:10298000704730B54FF4607401F0004521F000410C
:1029900020E700BF50EA010208BF704730B54FF092
:1029A00000050AE050EA010208BF704730B511F097
:1029B000004502D5404261EB41014FF4806404F1CF
:1029C00032045FEA915C3FF4DCAE4FF003025FEA51
:1029D000DC0C18BF03325FEADC0C18BF033202EBD9
:1029E000DC02C2F1200300FA03FC20FA02F001FA33
:1029F00003FE40EA0E0021FA02F11444C1E600BFD2
:102A000070B54FF0FF0C4CF4E06C1CEA11541DBF84
:102A10001CEA135594EA0C0F95EA0C0F00F0DEF84F
:102A20002C4481EA030621EA4C5123EA4C5350EA34
:102A3000013518BF52EA033541F4801143F4801385
:102A400038D0A0FB02CE4FF00005E1FB02E506F016
:102A50000042E0FB03E54FF00006E1FB03569CF06B
:102A6000000F18BF4EF0010EA4F1FF04B6F5007F71
:102A700064F5407404D25FEA4E0E6D4146EB0606E3
:102A800042EAC62141EA55514FEAC52040EA5E506C
:102A90004FEACE2EB4F1FD0C88BFBCF5E06F1ED816
:102AA000BEF1004F08BF5FEA500E50F1000041EB4D
:102AB000045170BD06F0004646EA010140EA0200FA
:102AC00081EA0301B4EB5C04C2BFD4EB0C0541EA1C
:102AD000045170BD41F480114FF0000E013C00F331
:102AE000AB8014F1360FDEBF002001F0004170BD55
:102AF000C4F10004203C35DA0C341BDC04F114046E
:102B0000C4F1200500FA05F320FA04F001FA05F2F9
:102B100040EA020001F0004221F0004110EBD370C6
:102B200021FA04F642EB06015EEA430E08BF20EAF2
:102B3000D37070BDC4F10C04C4F1200500FA04F395
:102B400020FA05F001FA04F240EA020001F0004127
:102B500010EBD37041F100015EEA430E08BF20EA9A
:102B6000D37070BDC4F1200500FA05F24EEA020EE2
:102B700020FA04F301FA05F243EA020321FA04F011
:102B800001F0004121FA04F220EA020000EBD370C8
:102B90005EEA430E08BF20EAD37070BD94F0000FC8
:102BA0000FD101F00046400041EB010111F4801FFC
:102BB00008BF013CF7D041EA060195F0000F18BFAD
:102BC000704703F00046520043EB030313F4801FE9
:102BD00008BF013DF7D043EA0603704794EA0C0FA3
:102BE0000CEA135518BF95EA0C0F0CD050EA4106B9
:102BF00018BF52EA4306D1D181EA030101F0004136
:102C00004FF0000070BD50EA410606BF104619465D
:102C100052EA430619D094EA0C0F02D150EA013669
:102C200013D195EA0C0F05D152EA03361CBF1046AA
:102C300019460AD181EA030101F0004141F0FE4149
:102C400041F470014FF0000070BD41F0FE4141F4CD
:102C5000780170BD70B54FF0FF0C4CF4E06C1CEACD
:102C600011541DBF1CEA135594EA0C0F95EA0C0F82
:102C700000F0A7F8A4EB050481EA030E52EA03353D
:102C80004FEA013100F088804FEA03334FF080555E
:102C900045EA131343EA12634FEA022245EA11158B
:102CA00045EA10654FEA00260EF000419D4208BF3C
:102CB000964244F1FD0404F5407402D25B084FEAE9
:102CC0003202B61A65EB03055B084FEA32024FF495
:102CD00080104FF4002CB6EB020E75EB030E22BFF2
:102CE000B61A754640EA0C005B084FEA3202B6EBB2
:102CF000020E75EB030E22BFB61A754640EA5C0061
:102D00005B084FEA3202B6EB020E75EB030E22BFF0
:102D1000B61A754640EA9C005B084FEA3202B6EBF1
:102D2000020E75EB030E22BFB61A754640EADC00B0
:102D300055EA060E18D04FEA051545EA16754FEA12
:102D400006164FEAC30343EA52734FEAC2025FEA30
:102D50001C1CC0D111F4801F0BD141EA00014FF0BF
:102D600000004FF0004CB6E711F4801F04BF014390
:102D70000020B4F1FD0C88BFBCF5E06F3FF6AFAEAC
:102D8000B5EB030C04BFB6EB020C5FEA500C50F13C
:102D9000000041EB045170BD0EF0004E4EEA1131BF
:102DA00014EB5C04C2BFD4EB0C0541EA045170BDC6
:102DB00041F480114FF0000E013C90E645EA060E0A
:102DC0008DE60CEA135594EA0C0F08BF95EA0C0F38
:102DD0003FF43BAF94EA0C0F0AD150EA01347FF480
:102DE00034AF95EA0C0F7FF425AF104619462CE757
:102DF00095EA0C0F06D152EA03353FF4FDAE1046BA
:102E0000194622E750EA410618BF52EA43067FF40A
:102E1000C5AE50EA41047FF40DAF52EA43057FF49A
:102E2000EBAE12E74FF0FF3C06E000BF4FF0010CA5
:102E300002E000BF4FF0010C4DF804CD4FEA410C09
:102E40007FEA6C5C4FEA430C18BF7FEA6C5C1BD0D6
:102E500001B050EA410C0CBF52EA430C91EA030F57
:102E600002BF90EA020F0020704710F1000F91EAB4
:102E7000030F58BF994208BF90422CBFD8176FEA82
:102E8000E37040F0010070474FEA410C7FEA6C5C50
:102E900002D150EA013C07D14FEA430C7FEA6C5C57
:102EA000D6D152EA033CD3D05DF8040B704700BF83
:102EB0008446104662468C461946634600E000BFD1
:102EC00001B5FFF7B7FF002848BF10F1000F01BDA3
:102ED0004DF808EDFFF7F4FF0CBF012000205DF86E
:102EE00008FB00BF4DF808EDFFF7EAFF34BF0120F3
:102EF00000205DF808FB00BF4DF808EDFFF7E0FF8C
:102F000094BF012000205DF808FB00BF4DF808EDDC
:102F1000FFF7CEFF94BF012000205DF808FB00BF43
:102F20004DF808EDFFF7C4FF34BF012000205DF825
:102F300008FB00BF4FEA4102B2F1E04324BFB3F502
:102F4000001CDCF1FE5C0DD901F0004C4FEAC00220
:102F50004CEA5070B2F1004F40EB830008BF20F004
:102F60000100704711F0804F21D113F13872BCBFBE
:102F700001F00040704741F480114FEA5252C2F113
:102F80001802C2F1200C10FA0CF320FA02F018BF5C
:102F900040F001004FEAC1234FEAD32303FA0CFCAF
:102FA00040EA0C0023FA02F34FEA4303CCE77FEA3E
:102FB000625307D150EA01331EBF4FF0FE4040F488
:102FC0004000704701F0004040F0FE4040F4000037
:102FD000704700BF80F0004002E000BF81F0004178
:102FE00042001FBF5FEA410392EA030F7FEA226CAF
:102FF0007FEA236C6AD04FEA1262D2EB1363C1BF3F
:10300000D218414048404140B8BF5B42192B88BFAD
:10301000704710F0004F40F4000020F07F4018BFD0
:10302000404211F0004F41F4000121F07F4118BFF0
:10303000494292EA030F3FD0A2F1010241FA03FC98
:1030400010EB0C00C3F1200301FA03F100F0004380
:1030500002D5494260EB4000B0F5000F13D3B0F148
:10306000807F06D340084FEA310102F10102FE2AB7
:1030700051D2B1F1004F40EBC25008BF20F0010027
:1030800040EA03007047490040EB000010F4000FD5
:10309000A2F10102EDD1B0FA80FCACF1080CB2EB68
:1030A0000C0200FA0CF0AABF00EBC25052421843C7
:1030B000BCBFD0401843704792F0000F81F400016C
:1030C00006BF80F400000132013BB5E74FEA41033F
:1030D0007FEA226C18BF7FEA236C21D092EA030FAB
:1030E00004D092F0000F08BF0846704790EA010F25
:1030F0001CBF0020704712F07F4F04D1400028BF52
:1031000040F00040704712F100723CBF00F5000033
:10311000704700F0004343F0FE4040F40000704769
:103120007FEA226216BF08467FEA23630146420215
:1031300006BF5FEA412390EA010F40F48000704728
:103140004FF0000304E000BF10F0004348BF4042CE
:103150005FEA000C08BF704743F0964301464FF00A
:1031600000001CE050EA010208BF70474FF0000366
:103170000AE000BF50EA010208BF704711F00043A7
:1031800002D5404261EB41015FEA010C02BF844677
:103190000146002043F0B64308BFA3F18053A3F5D6
:1031A0000003BCFA8CF2083AA3EBC25310DB01FA1D
:1031B00002FC634400FA02FCC2F12002BCF1004FA1
:1031C00020FA02F243EB020008BF20F00100704732
:1031D00002F1200201FA02FCC2F1200250EA4C0086
:1031E00021FA02F243EB020008BF20EADC707047CC
:1031F0004FF0FF0C1CEAD0521EBF1CEAD15392EADA
:103200000C0F93EA0C0F6FD01A4480EA010C4002B5
:1032100018BF5FEA41211ED04FF0006343EA50100F
:1032200043EA5111A0FB01310CF00040B1F5000F51
:103230003EBF490041EAD3715B0040EA010062F100
:103240007F02FD2A1DD8B3F1004F40EBC25008BFEA
:1032500020F00100704790F0000F0CF0004C08BF08
:1032600049024CEA502040EA51207F3AC2BFD2F1D5
:10327000FF0340EAC250704740F400004FF00003E3
:10328000013A5DDC12F1190FDCBF00F0004070471D
:10329000C2F10002410021FA02F1C2F1200200FA5B
:1032A00002FC5FEA310040F1000053EA4C0308BF22
:1032B00020EADC70704792F0000F00F0004C02BF73
:1032C000400010F4000F013AF9D040EA0C0093F0EE
:1032D000000F01F0004C02BF490011F4000F013B48
:1032E000F9D041EA0C018FE70CEAD15392EA0C0FB6
:1032F00018BF93EA0C0F0AD030F0004C18BF31F021
:10330000004CD8D180EA010000F00040704790F0F6
:10331000000F17BF90F0004F084691F0000F91F09A
:10332000004F14D092EA0C0F01D142020FD193EA60
:103330000C0F03D14B0218BF084608D180EA0100E8
:1033400000F0004040F0FE4040F40000704740F0C4
:10335000FE4040F4400070474FF0FF0C1CEAD05292
:103360001EBF1CEAD15392EA0C0F93EA0C0F69D0EE
:10337000A2EB030280EA010C49024FEA402037D059
:103380004FF0805343EA111143EA10130CF0004050
:103390008B4238BF5B0042F17D024FF4000C8B4240
:1033A00024BF5B1A40EA0C00B3EB510F24BFA3EB20
:1033B000510340EA5C00B3EB910F24BFA3EB9103F0
:1033C00040EA9C00B3EBD10F24BFA3EBD10340EA4A
:1033D000DC001B0118BF5FEA1C1CE0D1FD2A3FF690
:1033E00050AF8B4240EBC25008BF20F00100704745
:1033F0000CF0004C4CEA50207F32C2BFD2F1FF03E8
:1034000040EAC250704740F400004FF00003013A18
:1034100037E792F0000F00F0004C02BF400010F4BC
:10342000000F013AF9D040EA0C0093F0000F01F0D0
:10343000004C02BF490011F4000F013BF9D041EAF2
:103440000C0195E70CEAD15392EA0C0F08D1420225
:103450007FF47DAF93EA0C0F7FF470AF084676E7F8
:1034600093EA0C0F04D14B023FF44CAF08466EE7D1
:1034700030F0004C18BF31F0004CCAD130F000429F
:103480007FF45CAF31F000437FF43CAF5FE700BFF7
:103490004FF0FF3C06E000BF4FF0010C02E000BF20
:1034A0004FF0010C4DF804CD4FEA40024FEA4103C2
:1034B0007FEA226C18BF7FEA236C11D001B052EA78
:1034C000530C18BF90EA010F58BFB2EB030088BF3E
:1034D000C81738BF6FEAE17018BF40F001007047AD
:1034E0007FEA226C02D15FEA402C05D17FEA236C8F
:1034F000E4D15FEA412CE1D05DF8040B704700BFD6
:10350000844608466146FFE70FB5FFF7C9FF00286C
:1035100048BF10F1000F0FBD4DF808EDFFF7F4FFA5
:103520000CBF012000205DF808FB00BF4DF808ED3E
:10353000FFF7EAFF34BF012000205DF808FB00BF61
:103540004DF808EDFFF7E0FF94BF012000205DF883
:1035500008FB00BF4DF808EDFFF7D2FF94BF012034
:1035600000205DF808FB00BF4DF808EDFFF7C8FF2D
:1035700034BF012000205DF808FB00BF42000ED2DE
:10358000B2F1FE4F0BD34FF09E03B3EB126209D49E
:103590004FEA002343F0004323FA02F070474FF054
:1035A0000000704712F1610F01D1420202D14FF0C9
:1035B000FF3070474FF00000704700BF40F21C031F
:1035C000C2F200031868704703000000FC3F0000CF
:1035D0004980FFFFFC3F00000300000000400000A6
:1035E0004980FFFFF83F00000100000003000000D9
:1035F00001000000030000000100000003000000C3
:10360000010000000300000001000000B73F0000BF
:103610000000000000000000004000000080FFFFEC
:1036200000400000353F00000000000000000000E6
:10363000004000000080FFFF00400000D33E00007B
:103640000000000000000000004000000080FFFFBC
:10365000004000009F3E000000000000000000004D
:10366000004000000080FFFF00400000004000001C
:103670000000000000000000010000000300000046
:103680000100000003000000010000000300000032
:1036900001000000030000000100000000400000E5
:1036A0000000000000000000004000009680FFFFC6
:1036B000723F000000400000000000000000000019
:1036C000004000009A81FFFF6E3E000000400000B5
:1036D0000000000000000000004000005E82FFFFCC
:1036E000AA3D0000004000000000000000000000B3
:1036F00000400000C782FFFF413D00000040000085
:1037000000000000000000007371727400000000EF
:1037100043000000F8B500BFF8BC08BC9E467047E7
:1037200045010008F8B500BFF8BC08BC9E467047CC
:04373000310100085B
:10373400040000000000000001020304010203046D
:103744000607080902040608010000002000002002
:103754000000000000000000000000000000000065
:103764000000000000000000000000000000000055
:1037740010370008000000000000000000000000F6
:103784000000000000000000000000000000000035
:103794000000000000000000000000000000000025
:1037A4000000000000000000000000000000000015
:1037B4000000000000000000000000000000000005
:1037C40000000000000000000000000000000000F5
:1037D40000000000000000000000000000000000E5
:1037E40000000000000000000000000000000000D5
:1037F40000000000000000000000000000000000C5
:1038040000000000000000000000000000000000B4
:1038140000000000000000000000000000000000A4
:103824000000000000000000000000000000000094
:103834000000000000000000000000000000000084
:0400000508000BB52F
:00000001FF
