:1000000012C08EC02BC02AC029C028C027C026C05D
:1000100025C024C023C0C4C121C020C01FC01EC031
:100020001DC01CC01BC011241FBECFE5D4E0DEBF25
:10003000CDBF10E0A0E6B0E0EEEFF3E002C0059027
:100040000D92A636B107D9F710E0A6E6B0E001C0E0
:100050001D92AD36B107E1F759D1CFC1D1CF11B85B
:1000600080E280B98A9885B7816085BF8BB780644C
:100070008BBF1092660008951F9394EA96BF06B650
:1000800007FEFDCF94E093B994E896BF06B607FE4D
:10009000FDCF83B984E886BF06B607FEFDCF84EAAC
:1000A00086BF06B607FEFDCF85E083B984E886BF2C
:1000B00006B607FEFDCF10926600E0E014E816BF1A
:1000C000E530B9F086B7806486BF06B607FEFDCF7F
:1000D00083B1F0E0E959FF4F808349D1E091660098
:1000E000EF5FE0936600E63050F384E986BF1F912E
:1000F0000895E5E0EACF94EA96BF06B607FEFDCF85
:1001000094E093B994E896BF06B607FEFDCF83B995
:1001100084E886BF06B607FEFDCF84E986BF089552
:100120001F920F920FB60F9211242F933F934F936C
:100130005F936F937F938F939F93AF93BF93EF934F
:10014000FF938AE099DFFF91EF91BF91AF919F916B
:100150008F917F916F915F914F913F912F910F9070
:100160000FBE0F901F90189580FF0BC0949A81FFCF
:100170000BC0959A82FF0BC0969A83FD0BC097988F
:100180000895949881FDF5CF959882FDF5CF9698C6
:1001900083FFF5CF979A089581E0849B80E085994D
:1001A000826086998460879B0895886008951F9374
:1001B0008C988D988E988F98C19AC09AEDDF182FE1
:1001C0001295107FC098C09AE7DFC098812B1F91CD
:1001D0000895C298ECDF08951F93182F8C9A8D9A7A
:1001E0008E9A8F9AC198C09A82958F70BDDFC09801
:1001F000C09A812FB9DFC098ECDF87FDFDCF1F913A
:100200000895C298E9DF0895C29AE6DF0895CF9372
:10021000DF93EC018881882329F02196F5DF89910D
:100220008823E1F7DF91CF9108956295660F660FFD
:10023000607C680F862F8068E4DF089581E0E1DF4D
:100240008FE99FE00197F1F700C00000089582E078
:10025000D8DF8FE99FE00197F1F700C00000089513
:100260001F938C9A8D9A8E9A8F9AB89ABA9AB99A45
:100270008FE295E70197F1F700C00000C298C0989F
:10028000C19813E0C09A83E06FDFC0988FE097E2D7
:100290000197F1F700C000001150A1F7C09A82E069
:1002A00063DFC0988FEC97E00197F1F700C0000082
:1002B00088E2A7DF8FEC97E00197F1F700C000001C
:1002C00088E09FDF8FEC97E00197F1F700C0000016
:1002D00081E097DF8FEC97E00197F1F700C0000015
:1002E00086E08FDF8FEC97E00197F1F700C0000008
:1002F0008CE087DF8FEC97E00197F1F700C00000FA
:100300001F91089523D0ACDFAADE0895FBDF8FECA8
:1003100097E00197F1F700C0000099DF8FEF99E6B1
:10032000A8E181509040A040E1F700C0000080E6C5
:1003300090E06DDF8FEF99E6A8E181509040A040FA
:10034000E1F700C00000789482DFFFCF10BC83E3A8
:1003500089B98BB11BB88AB11AB880B510BC599A4B
:100360008AB188698AB980B58E6880BD08955D9B21
:10037000FECF8CB908955F9BFECF08955D9BFECFA5
:100380009CB90895CF93DF93EC018881882329F0ED
:1003900021963ADF89918823E1F7DF91CF91089583
:1003A0001F920F920FB60F9211241F932F933F931A
:1003B0004F935F936F937F938F939F93AF93BF936D
:1003C000EF93FF931CB11137B1F0812F1DDF812F07
:1003D00092DEFF91EF91BF91AF919F918F917F91AD
:1003E0006F915F914F913F912F911F910F900FBE91
:0E03F0000F901F9018952BDFEACFF894FFCFE7
:0603FE00537461727400EB
:00000001FF
